:020000040800F2
:102000000050002021210008593400085B340008EA
:102010005D3400085F3400086134000800000000EF
:102020000000000000000000000000006334000811
:1020300065340008000000006734000869340008B7
:102040006521000865210008652100086521000858
:102050006521000865210008652100086521000848
:102060006521000865210008652100086521000838
:102070006521000865210008652100086521000828
:102080006521000865210008652100086521000818
:102090006B340008652100086521000865210008EF
:1020A00065210008652100086521000865210008F8
:1020B00065210008652100086521000865210008E8
:1020C00065210008652100086521000865210008D8
:1020D00065210008652100086521000865210008C8
:1020E0006521000865210008652100080000000046
:1020F00000000000000000000000000000000000E0
:1021000000000000000000005FF808F141524D009F
:10211000A303040553544245452D4D494E49000043
:10212000002103E00A4B5B584350043109480A4B35
:1021300042189A42F6D3094A02E0002342F8043BCF
:10214000074B9A42F9D302F061FC00F053F8704754
:10215000D04B000800000020FC000020FC00002004
:1021600038030020FEE710B50023144605E011F8FF
:1021700003C0013C00F803C00133002CF7D18018E4
:1021800010BD002305E000BF00BF00BF00BF00BFBF
:1021900001338342F7DB7047C000FFF7F2BF38B569
:1021A0000546002404E04FF4FA50FFF7EAFF01343B
:1021B000AC42F8DB38BD000010B50C4B04461B7870
:1021C0003B2B05D80A2807D102E00120FFF7E7FFE3
:1021D000064B1B78002BF8D1044A13783B2B03D80D
:1021E0000349CC5401331370012010BD09010020B4
:1021F000AC01002008B501F06BF801F043F801F0E4
:102200005BF802F0E7FB00F03FF90120FFF7C7FFA2
:10221000082000F059FFF6E701384B42411803EA65
:102220000100704710B5074B074C084A0848236067
:10223000084B8018C01A4FF48061FFF7EDFF606013
:1022400010BD00BF0020000800000020D04B000897
:10225000FC00002000000020054B1A68904201DAC3
:10226000012070475B689842B4BF0020012070478E
:1022700000000020014B1872704700BF00000020D2
:1022800050F8043DB3F1FF3FFAD0704738B50A4C1F
:102290006FF05C0363705D332371084B08485B7813
:1022A00001256371A570E570A060FFF7E9FF054B9C
:1022B000E0601D7038BD00BF1001002058010020F3
:1022C00000000208A101002010B51B4B5A78997834
:1022D000012A0ED0022A1CD05A68002305E013F808
:1022E00002C0164803F800C00133D8B28842F6D3C2
:1022F0001EE058680022034608E0104C0232C0EB92
:10230000040C1C88D2B22CF8034002338A42F4D366
:102310000EE058680022034608E0084C0432C0EB87
:10232000040C1C68D2B24CF8034004338A42F4D344
:10233000034B01221A7010BD58010020100100202B
:10234000A101002030B5184B5A789878012A0DD099
:10235000022A1AD05A68002304E01349C918097ADE
:1023600099540133D9B28142F7D330BD5C681A4623
:10237000002107E01589C3EB020C02312CF8045050
:10238000C9B202328142F5D330BD5C681A460021E1
:1023900007E09568C3EB020C04314CF80450C9B255
:1023A00004328142F5D330BD5801002008B5804782
:1023B00008BD0000024B034A1860034B1A607047C7
:1023C0009C01002011250008A401002009B1FFF79D
:1023D000F1BFFFF7EBBF0000034B5A68034B1A60D5
:1023E000034A044B1A607047580100209C010020EA
:1023F000B5240008A40100200A4B6FF055021A70A2
:10240000094A1278A02A02D19E3A5A7005E00122A8
:102410005A70064A126812789A70054B01221A7097
:10242000704700BF10010020A301002050010020D0
:10243000A1010020044B054A598811705A68044BC9
:102440001A60FFF7D9BF00BF58010020A301002088
:1024500050010020054B064A597811709978054AB9
:102460001170DA78044B1A70704700BF58010020D1
:1024700054010020A0010020A8010020014B587841
:10248000FFF7F8BE5801002010B5044C236823B1B3
:10249000034A106898470023236010BDA401002060
:1024A0009C010020024B587808B1FFF778BE7047B6
:1024B00058010020054B10B50022054C1A707023FE
:1024C000237000F087FF7123237010BD09010020E5
:1024D0000C01002010B5094B094C0A481B782278E2
:1024E00003704270084902F03F020230FFF73BFEE2
:1024F00000232370054B01221A7010BD0C0100202F
:102500000901002010010020AC010020A1010020E1
:1025100010B5044600F0C8FD4FF41670FFF73FFEFB
:102520002046BDE81040FFF741BF0000F8B50B4E54
:102530000025B77874680337BF080C360BE02046D7
:10254000FFF78AFE20B1204656F8041C01F0FAF984
:10255000043401350436BD42F1DBF8BD58010020DA
:10256000034B5B880BB101F0BDB901F0AFB900BFFF
:102570005801002010B5064B5C682046FFF76CFE42
:1025800020B12046BDE8104001F008BA10BD00BFE0
:1025900058010020C000FFF7F4BD10B5182000213D
:1025A00000F007FE1B20002100F003FE182001218F
:1025B00000F0E0FD1B20012100F0DCFD1A200121CC
:1025C00000F0D8FD0021192000F0D4FD6420FFF7B1
:1025D000E1FF0121182000F0ECFD6420FFF7DAFF95
:1025E00018200021BDE8104000F0E3BD10B51D4BE0
:1025F0009B7813F0100418D01820002100F0BAFDC9
:102600001B20002100F0B6FD1A20002100F0B2FDD1
:102610001820002100F0CDFD1B20002100F0C9FD95
:102620001A20002100F0C5FD13E013F0800F0ED03A
:1026300001211B2000F0BDFD6420FFF7ABFF1B2034
:10264000214600F0B6FD6420FFF7A4FF01E0FFF78C
:10265000A4FF054B6FF055021A70044B57321A70E5
:1026600010BD00BF5801002010010020A101002072
:1026700070B5002106461B2000F09BFD0024254676
:102680001A2006F0800100F094FD104B6400187AC7
:10269000FFF780FF1920E4B200F09AFD08B144F082
:1026A000010401211B2000F084FD084B0135187A3C
:1026B000FFF770FFEDB21B20002100F07AFD082D1E
:1026C00002D07600F6B2DBE7204670BD00000020A5
:1026D00038B505460024285DFFF7CAFF024BE054D9
:1026E0000134042CF7D138BD1001002008B505488D
:1026F000FFF7EEFF044B1A78044B02F001021A7048
:1027000008BD00BF5901002058010020A101002090
:102710002DE9F845284B93F801A01B7813F0020F20
:1027200007D0264B40221A70254A00231370254AF1
:10273000137000242AE0214E224F3078DFF8808089
:10274000FFF796FF3878FFF793FF2D1998F80000F0
:10275000FFF78EFFA878FFF78BFF1B4BE054337811
:1027600013F0880F0ED098F800200132D2B288F80A
:10277000002012B93A7801323A70104A23F0080367
:10278000137002E043F0080333700134E3B25345A1
:10279000094DD0D32B7813F0040F04D00AF10200B6
:1027A0002818FFF795FF044B1A78084B02F0010236
:1027B0001A70BDE8F88500BF5801002054010020C0
:1027C000A0010020A801002010010020A10100208C
:1027D0000E4B1B78272B01D8FFF79ABF2B2B01D16B
:1027E000FFF704BF2A2B01D1FFF734BE282B01D0FD
:1027F000292B01D1FFF77ABF2C2B01D1FFF73EBE69
:102800002E2B01D1FFF74EBE704700BF58010020AC
:1028100010B52B4B1B78002B39D12A4B2A4A1B7839
:102820001F2B137002D9FFF7D3FF30E00F2B02D913
:1028300000F0F0FB2BE0013B0D2B28D8DFE803F084
:102840001F27270A070D1C13271627252219FFF714
:102850003BFD1CE0FFF776FD19E01A4B58685988DC
:10286000FFF7B4FD13E0FFF785FE10E0FFF75EFE13
:102870000DE0FFF775FE0AE0FFF7DCFD07E0FFF76C
:1028800005FD04E0FFF726FE01E0FFF7A5FD0C4C77
:1028900023789BB1012002F03DF8402201460A480E
:1028A00001F042FF012001F0B4FF00232370074B29
:1028B0001B781BB1BDE81040FFF79EBD10BD00BFE7
:1028C000A10100205801002010010020A3010020D8
:1028D00010B50649012001F015FFFFF799FF01200F
:1028E0004FF44051BDE8104001F079BF580100207D
:1028F0004278037843EA0220704701700912417060
:1029000070470146182000F054BC70B505460E46CD
:10291000002415E01B20002100F04BFC05F0010114
:10292000192000F046FC0120FFF736FC1B20012196
:1029300000F03FFC0120FFF72FFC01346D08E4B2EA
:10294000B442E7D370BD0821FFF7DFBF0421FFF7D2
:10295000DCBF10B504460020FFF7F8FFE0B2FFF738
:10296000F2FFC4F30720FFF7EEFFC4F30740FFF7C1
:10297000EAFF1B200021BDE8104000F01ABC000057
:1029800070B5114D00242B79064663F307046FF3ED
:102990000F246FF317446FF31F64200140F40010FD
:1029A000FFF7D7FF0948FFF7D4FFAB7863F30704BD
:1029B000EB7863F30F2446EA041444F40010BDE8F6
:1029C0007040FFF7C6BF00BF58010020900188008B
:1029D0000020FFF7BEBF10B5FFF7FAFFBDE81040BB
:1029E000FFF7F6BF10B50348FFF7B3FFBDE810408F
:1029F000FFF7EEBF0002040070B504460E46002546
:102A000016E014F0010102D01920012100E0192084
:102A100000F0CFFB01211B2000F0CBFB0120FFF7D2
:102A2000BBFB1B20002100F0C4FB01356408EDB2A4
:102A3000B542E6D370BD38B51B20002100F0B9FBCC
:102A400000252C461B20012100F0B3FB0120FFF7DD
:102A5000A3FB1920640800F0BBFB20B16FEA4464BB
:102A60006FEA5464E4B21B200021013500F0A1FBA1
:102A7000EDB20120FFF790FB082DE3D1204638BDD1
:102A80002DE9F04104460D461746002614E011B129
:102A90001920012100E0192000F08BFB01211B20EF
:102AA00000F087FB0120FFF777FB1B20002100F0DF
:102AB00080FB01366408F6B26B1E9E4204F00101F1
:102AC000E5DB11B11920012100E0192000F071FBB4
:102AD0001B20012100F06DFB17B13846FFF75FFBAB
:102AE0000120FFF759FB1B200021BDE8F04100F059
:102AF00060BB00002DE9F8450E4D002495F80180DB
:102B00006F79AE79073510E02846FFF7F1FE042112
:102B1000824632463846FFF7B3FF1FFA8AF010218B
:102B2000FFF76AFF01340235E4B24445ECD3BDE857
:102B3000F88500BF5801002010B50C460421FFF7AE
:102B40009FFF20461021BDE81040FFF755BF10B58C
:102B50000C4640F4606100200246FFF7EDFF0020C4
:102B600044F4DC410246BDE81040FFF7E5BF000039
:102B700010B5074CF8212079FFF7E9FFE078F7213D
:102B8000FFF7E5FFA078F621BDE81040FFF7DFBFB3
:102B90005801002030B1C82802D9C838FFF7FFBA61
:102BA000FFF7FABA0820FFF7ECBA00002DE9F74F5B
:102BB000DFF808B1404D01E057443D4695F80090DC
:102BC000B9F1000F76D06F1C19F0800F09F03F0AA1
:102BD0002FD00026B04628E0AC5D182004F080011C
:102BE00000F0E7FA1A2004F0400100F0E2FA04F0E5
:102BF00010011B2000F0DDFA0020FFF7CBFF1820AA
:102C000004F0080100F0D5FA1A2004F0040100F0E5
:102C1000D0FA1B2004F0010100F0CBFA0020FFF7EE
:102C2000B9FF08F101085FFA88F80136D045D3D31F
:102C3000C2E700240020FFF764FE4FF0010826469B
:102C40000194254630E01B20002100F0B2FA2DB996
:102C500017F8013B4FF0010801932E46019B1A2003
:102C600008EA030100F0A5FA0AF1FF339C4203D100
:102C700009F04000FFF745FE192000F0A9FA10B155
:102C800048EA0606F6B201351B200121EDB200F03C
:102C900090FA4FEA4808082D08BF0BF8016B5FFA5D
:102CA00088F808BF083D0134E3B25345CBD38BF815
:102CB000006082E7BDE8FE8F59010020100100206E
:102CC000014610B11920012100E0192000F052BA8C
:102CD000F8B5FFF74DFF1B4B00255F782EE009206C
:102CE0000421FFF789FE00200821FFF785FE002060
:102CF000FFF7E6FF002408261B20012100F059FA07
:102D00000120FFF749FA1920640800F061FA20B1A8
:102D10006FEA44646FEA5464E4B21B200021013E70
:102D200000F047FAF6B20120FFF736FA002EE3D1A1
:102D30000120FFF7C5FF044BEC540135EBB2BB4259
:102D4000CDD3F8BD580100201001002009B10021A9
:102D500000E0012100F00EBA10B50120FFF7F6FDEA
:102D60000020FFF7F0FD1B20002100F022FA0121D6
:102D70001920FFF7EBFF0120FFF70EFAFFF75BFECC
:102D80004FF0000460F30704FFF755FE002160F3E5
:102D90000F241920FFF7DAFF0120FFF7FDF9FFF7F5
:102DA00017FEA0B210BD000070B51E4B1E4C9E78E1
:102DB000FFF70EFEFFF716FE0620FFF7E1FD1B48AA
:102DC000FFF7C7FD0025FFF703FE28E01848FFF7CF
:102DD000C0FDFFF700FEFFF7BFFF01462046FFF7EB
:102DE0008CFD1448FFF7B5FDFFF7F5FD1248FFF71E
:102DF000B0FDFFF7F0FDFFF7AFFF0146A01CFFF7A6
:102E00007CFD0E48FFF7A5FDFFF7E5FDFFF7A4FFEA
:102E10000146201DFFF771FD01350634EDB2B542C4
:102E2000D4D370BD58010020100100204778200045
:102E3000960BBA00B6DBBA00D6D3BA00B60BBA000E
:102E40002DE9F041344B5E799F7866B9FFF7C0FDFC
:102E5000FFF7C8FD3148FFF77CFD3148FFF779FDEA
:102E60000720FFF78DFD2F4C002535E02E48FFF79A
:102E700070FD2046FFF73CFD000140F40010FFF715
:102E800068FDA01CFFF734FD000140F4001040F085
:102E90000100FFF75EFD201DFFF72AFD000140F451
:102EA000001040F00200FFF754FD2048FFF751FDED
:102EB000FFF791FD1E48FFF74CFDFFF78CFD1D4805
:102EC000FFF747FDFFF787FD1B48FFF742FDFFF7C0
:102ED00082FD01350634EDB2BD42C7D3022E19D1B1
:102EE000FFF779FD1548FFF734FDFFF774FDFFF795
:102EF00079FD1348FFF72DFD1248FFF72AFDFFF774
:102F000067FDFFF729FF10F4004FF0D1BDE8F04155
:102F1000FFF768BDBDE8F081580100201A002400C9
:102F20000A3B88005F0100200003EB00B60BBB00EA
:102F3000B6DBBB00B6EBBB00B61BBB0061E7A8006D
:102F4000003B8000203C88002DE9F0412F4D304FA0
:102F50006E7895F80280043554E015F8014C18207D
:102F600004F0080100F025F91A2004F0040100F033
:102F700020F9192004F0020100F01BF91B2004F0D5
:102F8000010100F016F9182004F08001FFF7DEFEC1
:102F90001A2004F04001FFF7D9FE192004F02001A7
:102FA000FFF7D4FE1B2004F01001FFF7CFFE174BF4
:102FB0001B78152B1DD1182000F00AF9002814BF2A
:102FC000082400241A2000F003F910B144F004048E
:102FD000E4B2192000F0FCF810B144F00204E4B2AD
:102FE0001B2000F0F5F810B144F00104E4B207F83A
:102FF000014B4046FFF7CEFD0120FFF7CDF8013E23
:10300000F6B20135002EA8D1BDE8F08158010020AC
:103010001001002008B5174B1B78122B02D1FFF7C7
:1030200069FD20E0102B02D1FFF7A2FD1BE0112B60
:1030300002D1FFF74DFE16E0142B01D0152B02D163
:10304000FFF782FF0FE0162B02D1FFF7F9FE0AE02F
:10305000172B02D1FFF7A8FE05E0182B01D0192B82
:1030600001D1FFF7A3FD034B1A78034B02F00102D5
:103070001A7008BD58010020A101002002484FF439
:10308000004100F0CDBD00BF0008014020B9054857
:103090004FF4804100F0C4BD02484FF4804100F07D
:1030A000BDBD00BF0008014010B500F0CFFB0020FF
:1030B000BDE81040FFF7EABF02484FF4004100F0BE
:1030C000ADBD00BF00080140054A1368013313601D
:1030D000012282401A4201D0FFF7EEBFFFF7CEBFB8
:1030E000FC00002030B50120014685B000F006FD4F
:1030F000174B4FF080625A603C20012100F0FEFC2B
:10310000032510244EF20003124803A9ADF80C3039
:103110008DF80E508DF80F4000F036FD4FF0000393
:103120000D4802A9ADF808308DF80A508DF80B4013
:1031300000F02AFD4FF04003084801A9ADF8043023
:103140008DF806508DF8074000F01EFD05B030BD2B
:103150000000014000080140000C01400010014047
:103160000011034B00F0070053F82000704700BF28
:10317000FC4A000838B504460D46FFF7F1FF04F09D
:10318000070292000F239340002D0CBF0425032556
:1031900004F00F049540072C6FEA030304DD426836
:1031A00013401D43456038BD026813401D43056050
:1031B00038BD38B504460D4604F00F04FFF7D0FFC4
:1031C000012313FA04F40DB1046138BD446138BD24
:1031D00010B50446FFF7C4FF04F00F04012212FAF1
:1031E00004F483681C420CBF0020012010BD0000C5
:1031F000014B03221A60704704010020044B9A7AA5
:10320000044B0AB1052200E001221A60704700BF9A
:103210001003002004010020002312E04FEA107C7C
:10322000BCF1090F94BF0CF1300C0CF1370C81F894
:1032300000C001334FF0000C81F801C00001DBB287
:1032400002319342EAD370470A4A0B4B10B51B6810
:10325000146804321068C0180AD008220749FFF722
:10326000DBFF074920460422BDE81040FFF7D4BF2A
:1032700010BD00BFECF7FF1FE8F7FF1F0E00002096
:103280001E00002007B54FF400514FF0006000F021
:1032900005FD4FF4A06000F0C5FC14238DF8043048
:1032A0000022133B01A88DF805308DF806208DF81B
:1032B000073000F0C1FC0EBD002010B500F00EFC80
:1032C0004FF400000121BDE8104000F025BC0000D3
:1032D00013B500F085FB4FF4803000F0A1FB00F047
:1032E0003DFC1B4B01280446187029D1102000F02A
:1032F000E1FA022000F0D4FA002000F0D1FB002017
:1033000000F0E2FB4FF4806000F0D4FB4FF440404B
:1033100000F0EAFB4FF480304FF4801100F09CFB8A
:10332000204600F0A5FB392000F004FC0028FAD06C
:10333000022000F0A3FB00F0ABFB0828FBD100E06B
:10334000FEE701A8FFF7CEFEFEF76CFF1CBD00BF35
:10335000EC02002000F00F000928C8BF27303030F1
:10336000FEF72ABF10B504460011FFF7F3FF204611
:10337000BDE81040FFF7EEBF10B504460012FFF79E
:10338000F1FF2046BDE81040FFF7ECBF10B5044642
:103390000014FFF7F1FF2046BDE81040FFF7ECBF37
:1033A00038B50546002401E0FEF706FF285D01342C
:1033B0000028F9D138BD000010B50C46FFF7F0FF2A
:1033C0002046FFF7E3FF0248BDE81040FFF7E8BFE3
:1033D000AF4B000870B51548FFF7E2FF0025144811
:1033E000FFF7DEFF202420460134E4B2FEF7E4FEBE
:1033F000522CF8D101350F48ADB2FFF7D1FF102D97
:10340000EDD10D4A0D490E4B8918C91A0D48FFF729
:10341000D3FF0D4B0D481968FFF7CEFF0C4B0D483D
:103420001968BDE87040FFF7C7BF00BFA44B000894
:10343000B14B0008AF4B0008D04B0008FC00002047
:1034400000000020B94B000800000020C24B00081B
:1034500004000020BD4B00087047FEE7FEE7FEE7D2
:10346000FEE7704770477047704700F001B80000F2
:10347000384B10B51A68384B92B21A80374A1B88FD
:10348000128802EA030313F4004F01D000F010FC8D
:10349000314B324A1B88128802EA030313F4806F0F
:1034A00006D02C4B4FF6FF321A602D4B5B689847C5
:1034B000294B1A88294B1B8803EA020212F4005F89
:1034C00003D0244A4DF6FF711160234A128813403D
:1034D00013F4805F06D01F4B4EF6FF721A60002077
:1034E00000F05CF91C4B1D4A1B88128802EA03039A
:1034F00013F4006F0CD01B4B1B7813B100F096F93E
:1035000002E0022000F04AF9124B4FF2FF721A60FB
:10351000114B1A88114B1B8803EA020212F4007F38
:1035200008D00C4A4FF6FF5111600F4A1178013153
:10353000C9B21170084A1288134013F4807F08D072
:10354000044B4FF6FF6207201A60BDE8104000F000
:1035500025B910BD445C0040EE0200203403002079
:10356000A0000020F800002000010020034B1B6891
:103570009B7A13B1024B05221A607047300300207A
:1035800004010020014B04221A607047040100204E
:1035900070477047062808B511D1144B1B681A787C
:1035A00002F07F02012A0AD15A7942B99B78222B74
:1035B00001D10F4B0DE0212B15D10E4B09E00B4B28
:1035C0001B681B7803F07F03212B0CD103280AD141
:1035D000094B064A4FF000011268002093615182A6
:1035E0009847002008BD022008BD00BF300300201E
:1035F00065360008593600083D36000801B900B1AB
:1036000002207047034B00201B68DA78024B1A60D7
:10361000704700BF30030020F0020020064B1B68FB
:103620001B7803F07F03212B03D10B2801D1FFF777
:10363000E9BF0220704700BF3003002028B9044AC8
:103640004FF001011268118270470248704700BFB5
:1036500030030020F0020020014900F007BD00BF48
:1036600060000020014900F001BD00BF680000209B
:10367000054B1B68DB78042B01D9002070470349F8
:1036800001EBC30100F0F2BC300300207000002009
:10369000014900F0EBBC00BF90000020014900F0A0
:1036A000E5BC00BF98000020274B284A1B68D27950
:1036B00010B500245A729C72DC72204601F05EF84C
:1036C00020464FF4007101F063F82046102101F00C
:1036D0006CF82046402101F00BF98021204601F0D2
:1036E000F5F8204601F0B9F8194B204693F86C1014
:1036F00001F03AF9204601F09EF801204FF4C06134
:1037000001F046F80120C02101F0E0F801204FF45B
:10371000807101F0EDF80120402101F017F901203E
:10372000402101F021F901204FF4405101F057F8F8
:103730000120202101F039F8204600F0A5FC054BBE
:1037400001221A6010BD00BF30030020304B00087A
:10375000600000200401002010B5FFF775FD054B47
:1037600000241B689C7200F083F800F0BBFF024B42
:103770001C6010BD300300200401002010B5064C71
:103780004FF6FB73226802EA03032360FFF736FD5E
:103790004FF43F43236010BD405C0040072818BF32
:1037A000204B10B51F4C18BF18702378052B35D847
:1037B000DFE803F003070B101823FFF7DFFF0623F2
:1037C00006E0FFF7DBFF042302E00223637001330E
:1037D000237010BD6378013BDBB263706378FBB983
:1037E000042218E0104B1A6892B242F010021A60DC
:1037F00005232370DB18637010BD6378013BDBB2D7
:103800006370637863B9084A4FF6EF73116801EA91
:10381000030313600622034B1A7010BD06232370A6
:1038200010BD00BFF8020020405C0040064B1A6843
:1038300092B242F008021A601A6892B242F0040290
:103840001A60FFF7D5BC00BF405C004038B5064D9C
:1038500001232B60054B00241C602046FFF716FC5B
:1038600003232B60204638BD405C0040445C004090
:1038700008B50120FFF70AFC064B01221A60064A30
:1038800000200649186010604FF4E0520A801A6068
:1038900008BD00BF405C0040445C00403403002091
:1038A000034B1A6802F0380240EA02021A607047BD
:1038B00000200240044B1A6822F010021A601A68B5
:1038C00040EA02021A60704700200240024B034A9D
:1038D0005A60034A5A60704700200240230167453E
:1038E000AB89EFCD024B1A6942F080021A61704732
:1038F000002002400A4BDA6812F0010F01D00120CB
:103900007047DA6812F0040F01D002207047D868BF
:1039100000F01000002814BF03200420704700BFEF
:103920000020024010B50446FFF7E4FF02E0FFF775
:10393000E1FF013C012802D1002CF8D100E004B9DC
:10394000052010BD73B5002304464FF400500E4609
:103950000193FFF7E7FF04281DD10F4D4FF40050EE
:103960002B6943F001032B61B3B22380FFF7DAFF29
:10397000042808D102340194019B360C1E804FF4B8
:103980000050FFF7CFFF052805D02A6941F6FE73E6
:1039900002EA03032B617CBD0020024038B50546D6
:1039A0004FF43020FFF7BEFF042815D10B4C4FF425
:1039B0003020236943F0020323616561236943F0EA
:1039C00040032361FFF7AEFF052805D0226941F6C9
:1039D000FD7302EA0303236138BD00BF00200240EB
:1039E0000D4B1A6842F001021A6059680B4A01EA4D
:1039F00002025A601A6822F0847222F480321A603D
:103A00001A6822F480221A605A6822F4FE025A6070
:103A10004FF41F029A607047001002400000FFF848
:103A20000C4BB0F5803F1A6822F480321A601A6895
:103A300022F480221A6003D0B0F5802F09D104E06F
:103A40001A6842F480321A6070471A6842F4A02261
:103A50001A60704700100240044B5A6822F47C122E
:103A600040EA02020A435A60704700BF0010024059
:103A7000014B1860704700BF60004242034B5A6818
:103A800022F0030240EA02025A607047001002402E
:103A9000024B586800F00C00704700BF0010024055
:103AA000034B5A6822F0F00240EA02025A60704763
:103AB00000100240034B5A6822F4E06240EA02021E
:103AC0005A60704700100240034B5A6822F460525B
:103AD00042EAC0025A60704700100240014B186071
:103AE000704700BFD8004242034B5A6822F440425C
:103AF00040EA02025A6070470010024019B1054BBB
:103B00009A69104303E0034B9A6922EA0000986126
:103B1000704700BF0010024019B1054BDA6910432D
:103B200003E0034BDA6922EA0000D861704700BF66
:103B3000001002404309012B02D1074B1B6804E02F
:103B4000022B054B0CBF1B6A5B6A00F01F0033FAA7
:103B500000F000F0010070470010024007B500239C
:103B600001933120FFF7E6FF019B01330193019B95
:103B7000B3F5A06F01D00028F3D03120FFF7DAFFB2
:103B8000003818BF01200EBDCB78F0B513F0100F30
:103B900018BF8A78098803F00F0C18BF4CEA020C92
:103BA00011F0FF0F1AD0046800220126964006EAA1
:103BB0000105B5420ED196000F27B7400CFA06F664
:103BC00024EA07043443282B01D1456102E0482B45
:103BD00008BF05610132082AE7D10460FF291CD91A
:103BE0004468002202F108050126AE4006EA0105FC
:103BF000B5420ED196000F27B7400CFA06F624EA1C
:103C000007043443282B01D1456102E0482B08BF4B
:103C100005610132082AE5D14460F0BD01617047B9
:103C20004161704740F0BE60024B40F42020D860F4
:103C3000704700BF00ED00E0C2780378F2B1154A8A
:103C400090F801C0D2688078D24302F4E062120A90
:103C5000C2F104010CFA01FC0F21D140014041EAFC
:103C60000C010D4A09019A18C9B282F800135909CA
:103C7000012203F01F0312FA03F306E0590901229F
:103C800003F01F0312FA03F32031034A42F82130F4
:103C9000704700BF00ED00E000E100E021F060416E
:103CA00021F07F01014B01439960704700ED00E076
:103CB00037B54FF00003ADF80630A6E01388584939
:103CC00003F00F030B70002B6DD1564C564D23683B
:103CD0009BB22B802988554B01F0300119802B882D
:103CE00003F440532B8021684BF6BF7301EA0303B2
:103CF00042F220014B4043F4004343F08003236031
:103D0000138813F0100F08D1226848F60F7302EAE7
:103D10000303236000F0C6FA1EE023689BB2ADF8EF
:103D20000630BDF8063013F4006F08D0226840F664
:103D30008F7302EA0303236000F052FB0CE0BDF82E
:103D400006301BB2002B60DA226840F68F7302EA5D
:103D50000303236000F0E2F922684BF6BF7302EA26
:103D600003032A8812F4805F2F4A18BF83F480531C
:103D7000128812F4005F2D4A18BF83F40053128892
:103D800012F0100F294A18BF83F01003128812F0A6
:103D9000200F274A18BF83F0200343EA0202214B79
:103DA00092B21A603BE09B0003F1804303F5B843F5
:103DB0001A6892B2ADF80620BDF8062012B2002AA9
:103DC0000BDA186840F68F7200EA02021A600A786D
:103DD000184B013A53F822309847BDF8063013F0DB
:103DE000800F12D00E4948F60F720B789B0003F13A
:103DF000804303F5B843186800EA02021A600A78A3
:103E00000D4B013A53F8223098470C4B0C4A1B6873
:103E10009BB2138013881BB2002BFFF64FAF3EBD41
:103E20000C030020005C0040FA020020FC0200208D
:103E30008080FFFF4400002028000020445C0040F8
:103E4000EE02002010B5074C20B922684FF00101A6
:103E5000118210BD044B1B681B68984720680A300C
:103E600010BD00BF300300202C03002010B50A4B0A
:103E70000A491B684978DA7891420AD3997841B99E
:103E80009C8834B99A72064B1B685B689847204639
:103E900010BD022010BD00BF30030020D000002064
:103EA0002C03002010B5074C20B922684FF0010107
:103EB000118210BD044B1B689B68984720680C302A
:103EC00010BD00BF300300202C03002038B50E4C7D
:103ED0000E4B22681B6850799B69D17898472368FC
:103EE0009A7A7AB170B91A7962B99D7855B9084B46
:103EF0001B68DB689847236828465A79DA72DA78B3
:103F00001A7338BD022038BD30030020080300209A
:103F10002C03002008B50246254B20B91B684FF042
:103F20000201198241E0234A4FF000011B68118011
:103F3000197811F07F0114D15B7A117813F0200FFA
:103F400014BF41F0020121F0020113F0400F194BA0
:103F500011701A7814BF42F0010222F001021A70A7
:103F60001EE0012921D0022901D000221DE059794B
:103F700001F00F039B0003F1804303F5B84311F0F8
:103F8000800F1B6803D003F03003102B03E003F411
:103F90004053B3F5805F03D1137843F001031370EE
:103FA000054B1B681B699847024A104608BD00BFB5
:103FB00030030020000300202C03002010B51F4B0D
:103FC0001F4C186894F800C0417921F080029300DA
:103FD00003F1804303F5B8431B6811F0800F14BF51
:103FE00003F0300303F44053624525D244881CBBE0
:103FF00013B3837A03B3930003F1804311F0800F6E
:1040000003F5B843196806D048F6BF7201EA020208
:1040100082F0100205E04BF68F7201EA020282F490
:10402000805242F4004242F080021A60054B1B6845
:104030009B699847002010BD022010BD300300206E
:10404000D00000202C03002008B5064B1B685A7ACC
:1040500042F020025A72044B1B68DB69984700202B
:1040600008BD00BF300300202C030020054B1A6858
:10407000538A18B98988CB1A1382704708681818B0
:10408000704700BF3003002030B5104B1C78002370
:1040900014E05FFA83FC4FEA8C0202F1804202F5E1
:1040A000B84215684CF4004C40F60F714CF0800C8F
:1040B00005EA01014CEA010111600133A342E8D392
:1040C000034B40F08000186030BD00BFD0000020DE
:1040D0004C5C00407047000008B50C4B002093F882
:1040E0002C1000F041FC0A4B1B68187A082807D1F5
:1040F000084B4FF480521A80074B4FF010021A8081
:10410000092814BF0020012008BD00BFA000002026
:1041100030030020FA020020FC02002070B5304B72
:104120001C68237A022B52D0042B50D0032B01D0D1
:10413000052B46D1A369228AABB1A2B1A58A9542CB
:1041400028BF154628469847238A06465B1B2382CC
:10415000638A0020EB18638200F0EAFB2A460146DE
:10416000304600F0F8FA238A5BB11E4B4FF4405200
:1041700000201A80014600F0E9FB1B4B4FF0300293
:104180001A80238AA28A9A4203D8154B03221B68FD
:1041900003E0134A1BB1136805221A720DE012687E
:1041A00006211172114A1168114A89B28A18520007
:1041B00013600D4B4FF030021A80094B1B681B7ABD
:1041C00006E0072B03D10B4B1B68DB6898470823DD
:1041D000034A12681372BDE87040FFF77DBF00BF4D
:1041E00030030020FA020020FC020020505C004056
:1041F0000230002008030020F8B5244B1C68238AF5
:10420000267AC3B9042E16D1214822490278012A00
:104210000CD1214A037012681FFA82FC1F4A6244C3
:10422000520013604FF030020A802AE04FF0100372
:104230000B80072625E0A58AAB4294BF0426022600
:104240009D4228BF1D462846A3699847074600207F
:1042500000F060FB2A460146384600F065FA294620
:10426000002000F073FB238A4FF030025B1B238297
:10427000638AED18074B65821A80094B4FF4405250
:104280001A80024B1B681E72F8BD00BF300300206D
:1042900008010020FC020020505C00400230002099
:1042A000FA02002010B5144B1B681A7A022A01D0BA
:1042B000042A05D1FFF7A0FF0F4B1B681B7A14E0FF
:1042C000062A11D15A78052A0AD11A7812F07F0FDE
:1042D00006D1D878FFF7D8FE084B1B681B6A9847B1
:1042E000074B1B689B6898470823034A12681372A0
:1042F000BDE81040FFF7F0BE300300202C03002083
:104300000803002010B5324B1B68187810F07F00AE
:1043100004D15A7A22F020025A7210BD022855D1D7
:104320005A88002A52D11A79002A4FD15A7922F09C
:104330008000840004F1804404F5B8442168254CD1
:1043400012F0800F94F800C014BF01F0300101F4A6
:10435000405160453AD2002938D09B7A002B35D0A5
:10436000840004F1804404F5B84412F0800F2368FF
:104370000CD003F03003102B22D1C4B2204600F041
:1043800090FA2046302100F010FA19E003F440536F
:10439000B3F5805F14D128B90F4B93F82C1000F0BF
:1043A000E3FA01E000F069FA22684BF68F7302EA43
:1043B000030383F4405343F4004343F0800323603A
:1043C000064B1B685B699847002010BD022010BD9A
:1043D00030030020D0000020A00000202C0300208B
:1043E0008C4BF7B51A688C4E8C4B92B2D31835684B
:1043F0005B001F682B7A092B1AD0BFB207F1005758
:1044000007F540577F003C4614F8013B2B707B7842
:104410000A376B70B4F8030000F0D6FA6880B4F87D
:104420000700356800F0D0FAA88033687F88DF8005
:10443000794C012322681372D3885578002B62D1FE
:10444000137813F07F032ED1092D02D1FFF70EFD53
:104450003BE0052D0DD192F90330002B4EDB937814
:10446000002B4BD19388002B48D1937A002B37D067
:1044700044E0032D0BD1D378012B27D193882BBB9C
:10448000537A13F0200F21D0FFF7DEFD1DE0012D40
:104490001CD1D378012B19D19388BBB9537A13F06F
:1044A000200F13D00AE0012B04D10B2D0ED1FFF702
:1044B0000DFD0AE0022B09D1012D02D1FFF722FFE9
:1044C00003E0032D02D1FFF779FD48B1544B284694
:1044D0001B685B699847032801D109230FE068B97D
:1044E0004C4B4FF030011A684E4B92B2D3185B0020
:1044F00000221A604C4B1980062300E00823464A2C
:1045000012681372E0E0062D18D1137813F07F0FB4
:1045100040F094809378012B03D1414B1B68DB69F9
:104520006CE0022B03D13E4B1B681B6A66E0032B39
:1045300040F084803A4B1B685B6A5FE0002D3BD102
:10454000518800297AD1536823F47F43B3F5003FA3
:1045500074D1137813F07F0303D19388002B6DD1AE
:1045600028E0012B0BD12E4B50791B689B69984793
:10457000002863D123689B7A002B5FD01AE0022BBE
:104580005CD15379294803F00F018A0002F180427F
:1045900002F5B8421268007813F0800F14BF02F0E1
:1045A000300202F44052814248D213F0700F45D1DC
:1045B000002A43D01E4B22E0082D05D1137813F0BA
:1045C0007F0F3BD11B4B1AE00A2D37D1137803F034
:1045D0007F03012B32D1937A002B2FD0518869BBF6
:1045E000536823F47F43B3F5803F27D10C4B5079B8
:1045F0001B689B69984708BB0F4B00E0F3B1064A64
:104600004FF000011268002051829361984700200A
:104610001FE000BF505C0040300300200430002049
:104620000803002002300020FC020020D0000020FF
:10463000153F0008453E0008A53E0008254B264CC6
:104640001B6822681B6950789847032801D12368AA
:1046500006E0214B4FF6FF711B681A8A8A4201D18E
:10466000092203E0022800D012B908221A722BE0B6
:1046700093F90010002921DAD9880191019882422A
:1046800002D9019A1A8211E08A420FD211490968AF
:1046900091F82C108A4201D2002105E092FBF1F042
:1046A00001FB102212B901210C4A1170094A12684B
:1046B00092F82C209A82FFF79FFD05E003221A72E0
:1046C000074B4FF440521A8003B0BDE8F040FFF7AB
:1046D00003BD00BF080300203003002008010020B4
:1046E000FA020020044B0020044A18604FF43F43B4
:1046F0001380034A13607047445C00403403002079
:10470000405C004070B500F07F0528460E4600F082
:104710004BF90446284600F00BF922460146304684
:1047200000F019F8204670BD01F10051013201F589
:10473000405110B549005208002309E0C41810F890
:1047400003C06478013A4CEA042C21F813C0023308
:10475000002AF3D110BD01F10051013201F54051A1
:1047600049005208002305E031F813C0013A20F84F
:1047700003C00233002AF7D1704700004FF6F873E8
:10478000024A00EA03031360704700BF505C004018
:10479000800000F1804000F5B840026848F68F13B1
:1047A00002EA03030B4303607047800000F180407E
:1047B00000F5B840026848F6BF7302EA030311F03F
:1047C000100F18BF83F0100311F0200F18BF83F0F3
:1047D000200343F4004343F08003036070478000EC
:1047E00000F1804000F5B84002684BF68F7302EA92
:1047F000030311F4805F18BF83F4805311F4005F4A
:1048000018BF83F4005343F4004343F08003036074
:104810007047800000F1804000F5B840026848F61B
:10482000BF7302EA030383F0300343F4004343F011
:10483000800303607047800000F1804000F5B840BD
:1048400002684BF68F7302EA030383F4405343F488
:10485000004343F0800303607047800000F1804014
:1048600000F5B840026840F60F6302EA030343F420
:10487000004343F0800303607047800000F18040F4
:1048800000F5B840036813F4804F09D0026840F681
:104890000F7302EA030343F4404343F080030360D1
:1048A0007047800000F1804000F5B840036813F0C5
:1048B000400F09D0026840F60F7302EA030343F485
:1048C000004343F0C003036070470000074B4FF6FE
:1048D000FE721B6801EA02029BB203EBC00303F104
:1048E000005303F540535B001A607047505C004072
:1048F000064B074A1B689BB203EBC0039A184FF69E
:10490000FE73520001EA030313607047505C0040DD
:1049100004300020054B1B689BB203EBC00303F17E
:10492000005303F540535B0018887047505C00400B
:10493000044B054A1B689BB203EBC0039A18520054
:1049400010887047505C004004300020044B054A3A
:104950001B689BB203EBC0039A18520011607047AA
:10496000505C0040023000200D4B1A680D4B92B293
:10497000D31803EBC0035B003E2909D94A0911F0A3
:104980001F0F01D1013A92B2920242F4004205E0B7
:104990004A0811F0010F18BF013292021A607047E5
:1049A000505C004006300020054B064A1B689BB255
:1049B00003EBC0039A18520010688005800D704701
:1049C000505C004006300020C3B2000A40EA0320D9
:1049D0007047000008B5074A074B084913600222D8
:1049E0001A72074B074A1360074A1B681160984701
:1049F00008BD00BF3003002010030020D4000020B9
:104A0000A0000020080300202C030020384B82B0B7
:104A10001A6842F001021A605968364A01EA020235
:104A20005A601A6822F0847222F480321A601A687E
:104A300022F480221A605A6822F4FE025A604FF46F
:104A40001F029A600022019200921A6842F480329A
:104A50001A60274B1B6803F400330093019B01335A
:104A60000193009B1BB9019BB3F5A06FF1D1204BC3
:104A70001B6813F4003318BF01230093009B012B24
:104A800034D11D4B1A6842F010021A601A6822F0E5
:104A900003021A601A6842F002021A60144B5A6844
:104AA0005A605A685A605A6842F480625A605A687A
:104AB00022F47C125A605A6842F4E8125A601A686A
:104AC00042F080721A600A4B1A6812F0007FFAD026
:104AD0005A6822F003025A605A6842F002025A6091
:104AE000034B5B6803F00C03082BF9D102B070474D
:104AF000001002400000FFF80020024000080140C2
:104B0000000C014000100140001401400018014059
:104B1000001C014000200140000801401201000279
:104B2000000000408304505700020102030100000E
:104B300009022900010100C032090400000203003B
:104B40000000092110010001221D0007058103401A
:104B50000001070501034000010000000600FF09F5
:104B600001A10119012940150026FF007508954093
:104B70008100190129409100C000000004030904CC
:104B80000E034100560052006500740063000000EF
:104B90001203410052004D0062006C00610073007E
:104BA0007400000048656C6C6F20576F726C640A6B
:104BB0000048656C6C6F203A00726F6D5F656E64C3
:104BC0003D00746F703D00253032782000000000F9
:104BD0000000000800200008050000001A03300053
:104BE0003000300031000000000000000000000034
:104BF0000000000000000000D5400008D54000087B
:104C0000D5400008D5400008D5400008D540000830
:104C1000D5400008D1280008D5400008D54000083C
:104C2000D5400008D5400008D5400008D540000810
:104C3000424B0008090000005C4B00081D0000000A
:104C40007C4B000804000000804B00080E000000B0
:104C5000904B0008120000000C0000201A00000019
:104C6000304B0008290000001C4B00081200000017
:104C700059370008A9360008913500089335000817
:104C8000953500081D360008FD3500089D360008E2
:104C90009136000871360008000000004000000056
:104CA00002010000D54000086D350008D54000081D
:104CB000D5400008D5400008D5400008D540000880
:0C4CC000D5400008853500080100000008
:0400000508002120AE
:00000001FF
